:040000000000009369
:040004000000513770
:040008000000019360
:04000c0000000213db
:040010000000029357
:0400140000000313d2
:04001800000003934e
:04001c0000000413c9
:040020000000049345
:0400240000000513c0
:04002800000005933c
:04002c0000000613b7
:040030000000069333
:0400340000000713ae
:04003800000007932a
:04003c0000000813a5
:040040000000089321
:04004400000009139c
:040048000000099318
:04004c0000000a1393
:0400500000000a930f
:0400540000000b138a
:0400580000000b9306
:04005c0000000c1381
:0400600000000c93fd
:0400640000000d1378
:0400680000000d93f4
:04006c0000000e136f
:0400700000000e93eb
:0400740000000f1366
:0400780000000f93e2
:04007c000a8000ef07
:040080000000006f0d
:04008400fe01011365
:0400880000112e2312
:04008c0000812c23a0
:040090000201041352
:0400940000050793c9
:04009800fef407a3c8
:04009c00fef4470324
:0400a00000a0079322
:0400a40000f71663e8
:0400a80000d005136c
:0400ac00fd9ff0efd5
:0400b000020007b78c
:0400b40000878793a7
:0400b800fef4470308
:0400bc0000e7a02396
:0400c0000000001329
:0400c40001c12083d3
:0400c800018124038b
:0400cc000201011319
:0400d0000000806745
:0400d400fe01011315
:0400d80000112e23c2
:0400dc0000812c2350
:0400e0000201041302
:0400e400fea426232d
:0400e80001c0006fe4
:0400ec00fec42783a4
:0400f000001787135b
:0400f400fee42623dd
:0400f8000007c783b3
:0400fc000007851361
:04010000f85ff0efc5
:04010400fec427838b
:040108000007c783a2
:04010c00fe0790e377
:0401100000000013d8
:0401140001c1208382
:04011800018124033a
:04011c0002010113c8
:0401200000008067f4
:04012400ff010113c3
:040128000011262379
:04012c000081242307
:0401300001010413b2
:04013400020007b707
:040138000047879362
:04013c00068007131f
:0401400000e7a02311
:040144001640051349
:04014800f8dff0effd
:04014c000000079315
:04015000000785130c
:0401540000c1208343
:0401580000812403fb
:04015c000101011389
:0401600000008067b4
:04016400746f6f4203
:040168002e676e6927
:04016c0000000a2e57
:00000001FF
