:10000000930000003751000093010000130200002C
:100010009302000013030000930300001304000088
:100020009304000013050000930500001306000070
:100030009306000013070000930700001308000058
:10004000930800001309000093090000130A000040
:10005000930A0000130B0000930B0000130C000028
:10006000930C0000130D0000930D0000130E000010
:10007000930E0000130F0000930F0000EF008000AC
:100080006F000000130101FE232E81001304010202
:10009000232604FE232404FEB7870000938707026B
:1000A0001307100A23A0E700930700001385070039
:0C00B0000324C10113010102678000005D
:00000001FF
