:040000000000009369
:040004000000513770
:040008000000019360
:04000c0000000213db
:040010000000029357
:0400140000000313d2
:04001800000003934e
:04001c0000000413c9
:040020000000049345
:0400240000000513c0
:04002800000005933c
:04002c0000000613b7
:040030000000069333
:0400340000000713ae
:04003800000007932a
:04003c0000000813a5
:040040000000089321
:04004400000009139c
:040048000000099318
:04004c0000000a1393
:0400500000000a930f
:0400540000000b138a
:0400580000000b9306
:04005c0000000c1381
:0400600000000c93fd
:0400640000000d1378
:0400680000000d93f4
:04006c0000000e136f
:0400700000000e93eb
:0400740000000f1366
:0400780000000f93e2
:04007c00008000ef11
:040080000000006f0d
:04008400fe01011365
:0400880000812e23a2
:04008c000201041356
:04009000fe04262321
:04009400fe0424231f
:04009800030007b7a3
:04009c000a1007132c
:0400a00000e7a023b2
:0400a40000000793be
:0400a80000078513b5
:0400ac0001c1240367
:0400b0000201011335
:0400b4000000806761
:00000001FF
