:040000000000009369
:040004000000513770
:040008000000019360
:04000c0000000213db
:040010000000029357
:0400140000000313d2
:04001800000003934e
:04001c0000000413c9
:040020000000049345
:0400240000000513c0
:04002800000005933c
:04002c0000000613b7
:040030000000069333
:0400340000000713ae
:04003800000007932a
:04003c0000000813a5
:040040000000089321
:04004400000009139c
:040048000000099318
:04004c0000000a1393
:0400500000000a930f
:0400540000000b138a
:0400580000000b9306
:04005c0000000c1381
:0400600000000c93fd
:0400640000000d1378
:0400680000000d93f4
:04006c0000000e136f
:0400700000000e93eb
:0400740000000f1366
:0400780000000f93e2
:04007c00008000ef11
:040080000000006f0d
:04008400fe01011365
:0400880000812e23a2
:04008c000201041356
:04009000746f77b75b
:04009400f427879333
:04009800fef420232f
:04009c002e6777b79d
:0400a000e6978793c5
:0400a400fef4222321
:0400a80002e00793d8
:0400ac00fef4142327
:0400b000fe04262301
:0400b400020007b788
:0400b80000478793e3
:0400bc0006800713a0
:0400c00000e7a02392
:0400c40002c0006f07
:0400c800fec42783c8
:0400cc00ff04071313
:0400d00000f707b37b
:0400d400ff07c70358
:0400d800020007b764
:0400dc00008787937f
:0400e00000e7a02372
:0400e400fec42783ac
:0400e80000178793e3
:0400ec00fef42623d5
:0400f000fec4270320
:0400f40000800793ee
:0400f800fce7d8e366
:0400fc000000079366
:04010000000785135c
:0401040001c124030e
:0401080002010113dc
:04010c000000806708
:00000001FF
